{
	"Practical2.sol": {
		"SimpleBank": {
			"abi": [
				{
					"inputs": [],
					"stateMutability": "nonpayable",
					"type": "constructor"
				},
				{
					"inputs": [],
					"name": "deposit",
					"outputs": [],
					"stateMutability": "payable",
					"type": "function"
				},
				{
					"inputs": [],
					"name": "getContractBalance",
					"outputs": [
						{
							"internalType": "uint256",
							"name": "",
							"type": "uint256"
						}
					],
					"stateMutability": "view",
					"type": "function"
				},
				{
					"inputs": [],
					"name": "joinAsClient",
					"outputs": [
						{
							"internalType": "string",
							"name": "",
							"type": "string"
						}
					],
					"stateMutability": "payable",
					"type": "function"
				},
				{
					"inputs": [],
					"name": "sendInterest",
					"outputs": [],
					"stateMutability": "payable",
					"type": "function"
				},
				{
					"inputs": [
						{
							"internalType": "address",
							"name": "managerAddress",
							"type": "address"
						}
					],
					"name": "setManager",
					"outputs": [
						{
							"internalType": "string",
							"name": "",
							"type": "string"
						}
					],
					"stateMutability": "nonpayable",
					"type": "function"
				},
				{
					"inputs": [
						{
							"internalType": "uint256",
							"name": "amount",
							"type": "uint256"
						}
					],
					"name": "withdraw",
					"outputs": [],
					"stateMutability": "payable",
					"type": "function"
				},
				{
					"stateMutability": "payable",
					"type": "receive"
				}
			],
			"devdoc": {
				"kind": "dev",
				"methods": {},
				"version": 1
			},
			"evm": {
				"assembly": "    /* \"Practical2.sol\":68:4660  contract SimpleBank... */\n  mstore(0x40, 0x80)\n    /* \"Practical2.sol\":1635:1769  constructor()... */\n  callvalue\n  dup1\n  iszero\n  tag_1\n  jumpi\n  0x00\n  dup1\n  revert\ntag_1:\n  pop\n    /* \"Practical2.sol\":1673:1674  0 */\n  0x00\n    /* \"Practical2.sol\":1657:1670  clientCounter */\n  0x01\n    /* \"Practical2.sol\":1657:1674  clientCounter = 0 */\n  dup2\n  swap1\n  sstore\n  pop\n    /* \"Practical2.sol\":68:4660  contract SimpleBank... */\n  dataSize(sub_0)\n  dup1\n  dataOffset(sub_0)\n  0x00\n  codecopy\n  0x00\n  return\nstop\n\nsub_0: assembly {\n        /* \"Practical2.sol\":68:4660  contract SimpleBank... */\n      mstore(0x40, 0x80)\n      jumpi(tag_1, lt(calldatasize, 0x04))\n      shr(0xe0, calldataload(0x00))\n      dup1\n      0x2e1a7d4d\n      eq\n      tag_3\n      jumpi\n      dup1\n      0x6f9fb98a\n      eq\n      tag_4\n      jumpi\n      dup1\n      0x9e0a5d68\n      eq\n      tag_5\n      jumpi\n      dup1\n      0xa4092174\n      eq\n      tag_6\n      jumpi\n      dup1\n      0xd0e30db0\n      eq\n      tag_7\n      jumpi\n      dup1\n      0xd0ebdbe7\n      eq\n      tag_8\n      jumpi\n      jump(tag_2)\n    tag_1:\n      jumpi(tag_2, calldatasize)\n      stop\n    tag_2:\n      0x00\n      dup1\n      revert\n        /* \"Practical2.sol\":3522:3914  function withdraw(uint amount) public payable onlyClients... */\n    tag_3:\n      tag_11\n      0x04\n      dup1\n      calldatasize\n      sub\n      dup2\n      add\n      swap1\n      tag_12\n      swap2\n      swap1\n      tag_13\n      jump\t// in\n    tag_12:\n      tag_14\n      jump\t// in\n    tag_11:\n      stop\n        /* \"Practical2.sol\":4462:4657  function getContractBalance() public view returns(uint)... */\n    tag_4:\n      callvalue\n      dup1\n      iszero\n      tag_15\n      jumpi\n      0x00\n      dup1\n      revert\n    tag_15:\n      pop\n      tag_16\n      tag_17\n      jump\t// in\n    tag_16:\n      mload(0x40)\n      tag_18\n      swap2\n      swap1\n      tag_19\n      jump\t// in\n    tag_18:\n      mload(0x40)\n      dup1\n      swap2\n      sub\n      swap1\n      return\n        /* \"Practical2.sol\":3922:4454  function sendInterest() public payable onlyManager... */\n    tag_5:\n      tag_20\n      tag_21\n      jump\t// in\n    tag_20:\n      stop\n        /* \"Practical2.sol\":2522:2986  function joinAsClient() public payable returns(string memory)... */\n    tag_6:\n      tag_22\n      tag_23\n      jump\t// in\n    tag_22:\n      mload(0x40)\n      tag_24\n      swap2\n      swap1\n      tag_25\n      jump\t// in\n    tag_24:\n      mload(0x40)\n      dup1\n      swap2\n      sub\n      swap1\n      return\n        /* \"Practical2.sol\":2992:3514  function deposit() public payable onlyClients... */\n    tag_7:\n      tag_26\n      tag_27\n      jump\t// in\n    tag_26:\n      stop\n        /* \"Practical2.sol\":1899:2514  function setManager(address managerAddress) public returns(string memory)... */\n    tag_8:\n      callvalue\n      dup1\n      iszero\n      tag_28\n      jumpi\n      0x00\n      dup1\n      revert\n    tag_28:\n      pop\n      tag_29\n      0x04\n      dup1\n      calldatasize\n      sub\n      dup2\n      add\n      swap1\n      tag_30\n      swap2\n      swap1\n      tag_31\n      jump\t// in\n    tag_30:\n      tag_32\n      jump\t// in\n    tag_29:\n      mload(0x40)\n      tag_33\n      swap2\n      swap1\n      tag_25\n      jump\t// in\n    tag_33:\n      mload(0x40)\n      dup1\n      swap2\n      sub\n      swap1\n      return\n        /* \"Practical2.sol\":3522:3914  function withdraw(uint amount) public payable onlyClients... */\n    tag_14:\n        /* \"Practical2.sol\":1005:1018  bool isclient */\n      0x00\n        /* \"Practical2.sol\":1070:1076  uint i */\n      dup1\n        /* \"Practical2.sol\":1065:1467  for (uint i = 0; i < clients.length; i++)... */\n    tag_35:\n        /* \"Practical2.sol\":1086:1093  clients */\n      0x00\n        /* \"Practical2.sol\":1086:1100  clients.length */\n      dup1\n      sload\n      swap1\n      pop\n        /* \"Practical2.sol\":1082:1083  i */\n      dup2\n        /* \"Practical2.sol\":1082:1100  i < clients.length */\n      lt\n        /* \"Practical2.sol\":1065:1467  for (uint i = 0; i < clients.length; i++)... */\n      iszero\n      tag_36\n      jumpi\n        /* \"Practical2.sol\":1191:1201  msg.sender */\n      caller\n        /* \"Practical2.sol\":1162:1201  clients[i].client_address == msg.sender */\n      0xffffffffffffffffffffffffffffffffffffffff\n      and\n        /* \"Practical2.sol\":1162:1169  clients */\n      0x00\n        /* \"Practical2.sol\":1170:1171  i */\n      dup3\n        /* \"Practical2.sol\":1162:1172  clients[i] */\n      dup2\n      sload\n      dup2\n      lt\n      tag_38\n      jumpi\n      tag_39\n      tag_40\n      jump\t// in\n    tag_39:\n    tag_38:\n      swap1\n      0x00\n      mstore\n      keccak256(0x00, 0x20)\n      swap1\n      0x03\n      mul\n      add\n        /* \"Practical2.sol\":1162:1187  clients[i].client_address */\n      0x01\n      add\n      0x00\n      swap1\n      sload\n      swap1\n      0x0100\n      exp\n      swap1\n      div\n      0xffffffffffffffffffffffffffffffffffffffff\n      and\n        /* \"Practical2.sol\":1162:1201  clients[i].client_address == msg.sender */\n      0xffffffffffffffffffffffffffffffffffffffff\n      and\n      sub\n        /* \"Practical2.sol\":1158:1464  if (clients[i].client_address == msg.sender)... */\n      tag_42\n      jumpi\n        /* \"Practical2.sol\":1334:1338  true */\n      0x01\n        /* \"Practical2.sol\":1323:1338  isclient = true */\n      swap2\n      pop\n        /* \"Practical2.sol\":1451:1456  break */\n      jump(tag_36)\n        /* \"Practical2.sol\":1158:1464  if (clients[i].client_address == msg.sender)... */\n    tag_42:\n        /* \"Practical2.sol\":1102:1105  i++ */\n      dup1\n      dup1\n      0x01\n      add\n      swap2\n      pop\n      pop\n        /* \"Practical2.sol\":1065:1467  for (uint i = 0; i < clients.length; i++)... */\n      jump(tag_35)\n    tag_36:\n      pop\n        /* \"Practical2.sol\":1477:1485  isclient */\n      dup1\n        /* \"Practical2.sol\":1469:1517  require(isclient, \"Only clients can call this!\") */\n      tag_43\n      jumpi\n      mload(0x40)\n      0x08c379a000000000000000000000000000000000000000000000000000000000\n      dup2\n      mstore\n      0x04\n      add\n      tag_44\n      swap1\n      tag_45\n      jump\t// in\n    tag_44:\n      mload(0x40)\n      dup1\n      swap2\n      sub\n      swap1\n      revert\n    tag_43:\n        /* \"Practical2.sol\":3738:3748  msg.sender */\n      caller\n        /* \"Practical2.sol\":3730:3758  payable(msg.sender).transfer */\n      0xffffffffffffffffffffffffffffffffffffffff\n      and\n        /* \"Practical2.sol\":3730:3776  payable(msg.sender).transfer(amount * 1 ether) */\n      0x08fc\n        /* \"Practical2.sol\":3768:3775  1 ether */\n      0x0de0b6b3a7640000\n        /* \"Practical2.sol\":3759:3765  amount */\n      dup5\n        /* \"Practical2.sol\":3759:3775  amount * 1 ether */\n      tag_47\n      swap2\n      swap1\n      tag_48\n      jump\t// in\n    tag_47:\n        /* \"Practical2.sol\":3730:3776  payable(msg.sender).transfer(amount * 1 ether) */\n      swap1\n      dup2\n      iszero\n      mul\n      swap1\n      mload(0x40)\n      0x00\n      mload(0x40)\n      dup1\n      dup4\n      sub\n      dup2\n      dup6\n      dup9\n      dup9\n      call\n      swap4\n      pop\n      pop\n      pop\n      pop\n      iszero\n      dup1\n      iszero\n      tag_50\n      jumpi\n      returndatasize\n      0x00\n      dup1\n      returndatacopy\n      revert(0x00, returndatasize)\n    tag_50:\n      pop\n        /* \"Practical2.sol\":871:1629  {                  // modifier can check wheather code is... */\n      pop\n        /* \"Practical2.sol\":3522:3914  function withdraw(uint amount) public payable onlyClients... */\n      pop\n      jump\t// out\n        /* \"Practical2.sol\":4462:4657  function getContractBalance() public view returns(uint)... */\n    tag_17:\n        /* \"Practical2.sol\":4512:4516  uint */\n      0x00\n        /* \"Practical2.sol\":4628:4649  address(this).balance */\n      selfbalance\n        /* \"Practical2.sol\":4621:4649  return address(this).balance */\n      swap1\n      pop\n        /* \"Practical2.sol\":4462:4657  function getContractBalance() public view returns(uint)... */\n      swap1\n      jump\t// out\n        /* \"Practical2.sol\":3922:4454  function sendInterest() public payable onlyManager... */\n    tag_21:\n        /* \"Practical2.sol\":628:635  manager */\n      0x02\n      0x00\n      swap1\n      sload\n      swap1\n      0x0100\n      exp\n      swap1\n      div\n      0xffffffffffffffffffffffffffffffffffffffff\n      and\n        /* \"Practical2.sol\":614:635  msg.sender == manager */\n      0xffffffffffffffffffffffffffffffffffffffff\n      and\n        /* \"Practical2.sol\":614:624  msg.sender */\n      caller\n        /* \"Practical2.sol\":614:635  msg.sender == manager */\n      0xffffffffffffffffffffffffffffffffffffffff\n      and\n      eq\n        /* \"Practical2.sol\":606:667  require(msg.sender == manager, \"Only manager can call this!\") */\n      tag_53\n      jumpi\n      mload(0x40)\n      0x08c379a000000000000000000000000000000000000000000000000000000000\n      dup2\n      mstore\n      0x04\n      add\n      tag_54\n      swap1\n      tag_55\n      jump\t// in\n    tag_54:\n      mload(0x40)\n      dup1\n      swap2\n      sub\n      swap1\n      revert\n    tag_53:\n        /* \"Practical2.sol\":4134:4140  uint i */\n      0x00\n        /* \"Practical2.sol\":4129:4447  for (uint i = 0; i < clients.length; i++)... */\n    tag_57:\n        /* \"Practical2.sol\":4150:4157  clients */\n      0x00\n        /* \"Practical2.sol\":4150:4164  clients.length */\n      dup1\n      sload\n      swap1\n      pop\n        /* \"Practical2.sol\":4146:4147  i */\n      dup2\n        /* \"Practical2.sol\":4146:4164  i < clients.length */\n      lt\n        /* \"Practical2.sol\":4129:4447  for (uint i = 0; i < clients.length; i++)... */\n      iszero\n      tag_58\n      jumpi\n        /* \"Practical2.sol\":4261:4283  address initialAddress */\n      0x00\n        /* \"Practical2.sol\":4286:4293  clients */\n      dup1\n        /* \"Practical2.sol\":4294:4295  i */\n      dup3\n        /* \"Practical2.sol\":4286:4296  clients[i] */\n      dup2\n      sload\n      dup2\n      lt\n      tag_60\n      jumpi\n      tag_61\n      tag_40\n      jump\t// in\n    tag_61:\n    tag_60:\n      swap1\n      0x00\n      mstore\n      keccak256(0x00, 0x20)\n      swap1\n      0x03\n      mul\n      add\n        /* \"Practical2.sol\":4286:4311  clients[i].client_address */\n      0x01\n      add\n      0x00\n      swap1\n      sload\n      swap1\n      0x0100\n      exp\n      swap1\n      div\n      0xffffffffffffffffffffffffffffffffffffffff\n      and\n        /* \"Practical2.sol\":4261:4311  address initialAddress = clients[i].client_address */\n      swap1\n      pop\n        /* \"Practical2.sol\":4410:4424  initialAddress */\n      dup1\n        /* \"Practical2.sol\":4402:4434  payable(initialAddress).transfer */\n      0xffffffffffffffffffffffffffffffffffffffff\n      and\n        /* \"Practical2.sol\":4402:4443  payable(initialAddress).transfer(1 ether) */\n      0x08fc\n        /* \"Practical2.sol\":4435:4442  1 ether */\n      0x0de0b6b3a7640000\n        /* \"Practical2.sol\":4402:4443  payable(initialAddress).transfer(1 ether) */\n      swap1\n      dup2\n      iszero\n      mul\n      swap1\n      mload(0x40)\n      0x00\n      mload(0x40)\n      dup1\n      dup4\n      sub\n      dup2\n      dup6\n      dup9\n      dup9\n      call\n      swap4\n      pop\n      pop\n      pop\n      pop\n      iszero\n      dup1\n      iszero\n      tag_64\n      jumpi\n      returndatasize\n      0x00\n      dup1\n      returndatacopy\n      revert(0x00, returndatasize)\n    tag_64:\n      pop\n        /* \"Practical2.sol\":4172:4447  {                                                       // check client in database... */\n      pop\n        /* \"Practical2.sol\":4166:4169  i++ */\n      dup1\n      dup1\n      0x01\n      add\n      swap2\n      pop\n      pop\n        /* \"Practical2.sol\":4129:4447  for (uint i = 0; i < clients.length; i++)... */\n      jump(tag_57)\n    tag_58:\n      pop\n        /* \"Practical2.sol\":3922:4454  function sendInterest() public payable onlyManager... */\n      jump\t// out\n        /* \"Practical2.sol\":2522:2986  function joinAsClient() public payable returns(string memory)... */\n    tag_23:\n        /* \"Practical2.sol\":2569:2582  string memory */\n      0x60\n        /* \"Practical2.sol\":2677:2684  clients */\n      0x00\n        /* \"Practical2.sol\":2690:2761  client_account(clientCounter++, msg.sender,address(msg.sender).balance) */\n      mload(0x40)\n      dup1\n      0x60\n      add\n      0x40\n      mstore\n      dup1\n        /* \"Practical2.sol\":2705:2718  clientCounter */\n      0x01\n      0x00\n        /* \"Practical2.sol\":2705:2720  clientCounter++ */\n      dup2\n      sload\n      dup1\n      swap3\n      swap2\n      swap1\n      tag_66\n      swap1\n      tag_67\n      jump\t// in\n    tag_66:\n      swap2\n      swap1\n      pop\n      sstore\n        /* \"Practical2.sol\":2690:2761  client_account(clientCounter++, msg.sender,address(msg.sender).balance) */\n      dup2\n      mstore\n      0x20\n      add\n        /* \"Practical2.sol\":2722:2732  msg.sender */\n      caller\n        /* \"Practical2.sol\":2690:2761  client_account(clientCounter++, msg.sender,address(msg.sender).balance) */\n      0xffffffffffffffffffffffffffffffffffffffff\n      and\n      dup2\n      mstore\n      0x20\n      add\n        /* \"Practical2.sol\":2741:2751  msg.sender */\n      caller\n        /* \"Practical2.sol\":2733:2760  address(msg.sender).balance */\n      0xffffffffffffffffffffffffffffffffffffffff\n      and\n      balance\n        /* \"Practical2.sol\":2690:2761  client_account(clientCounter++, msg.sender,address(msg.sender).balance) */\n      dup2\n      mstore\n      pop\n        /* \"Practical2.sol\":2677:2762  clients.push(client_account(clientCounter++, msg.sender,address(msg.sender).balance)) */\n      swap1\n      dup1\n      0x01\n      dup2\n      sload\n      add\n      dup1\n      dup3\n      sstore\n      dup1\n      swap2\n      pop\n      pop\n      0x01\n      swap1\n      sub\n      swap1\n      0x00\n      mstore\n      keccak256(0x00, 0x20)\n      swap1\n      0x03\n      mul\n      add\n      0x00\n      swap1\n      swap2\n      swap1\n      swap2\n      swap1\n      swap2\n      pop\n      0x00\n      dup3\n      add\n      mload\n      dup2\n      0x00\n      add\n      sstore\n      0x20\n      dup3\n      add\n      mload\n      dup2\n      0x01\n      add\n      exp(0x0100, 0x00)\n      dup2\n      sload\n      dup2\n      0xffffffffffffffffffffffffffffffffffffffff\n      mul\n      not\n      and\n      swap1\n      dup4\n      0xffffffffffffffffffffffffffffffffffffffff\n      and\n      mul\n      or\n      swap1\n      sstore\n      pop\n      0x40\n      dup3\n      add\n      mload\n      dup2\n      0x02\n      add\n      sstore\n      pop\n      pop\n        /* \"Practical2.sol\":2899:2908  return \"\" */\n      mload(0x40)\n      dup1\n      0x20\n      add\n      0x40\n      mstore\n      dup1\n      0x00\n      dup2\n      mstore\n      pop\n      swap1\n      pop\n        /* \"Practical2.sol\":2522:2986  function joinAsClient() public payable returns(string memory)... */\n      swap1\n      jump\t// out\n        /* \"Practical2.sol\":2992:3514  function deposit() public payable onlyClients... */\n    tag_27:\n        /* \"Practical2.sol\":1005:1018  bool isclient */\n      0x00\n        /* \"Practical2.sol\":1070:1076  uint i */\n      dup1\n        /* \"Practical2.sol\":1065:1467  for (uint i = 0; i < clients.length; i++)... */\n    tag_70:\n        /* \"Practical2.sol\":1086:1093  clients */\n      0x00\n        /* \"Practical2.sol\":1086:1100  clients.length */\n      dup1\n      sload\n      swap1\n      pop\n        /* \"Practical2.sol\":1082:1083  i */\n      dup2\n        /* \"Practical2.sol\":1082:1100  i < clients.length */\n      lt\n        /* \"Practical2.sol\":1065:1467  for (uint i = 0; i < clients.length; i++)... */\n      iszero\n      tag_71\n      jumpi\n        /* \"Practical2.sol\":1191:1201  msg.sender */\n      caller\n        /* \"Practical2.sol\":1162:1201  clients[i].client_address == msg.sender */\n      0xffffffffffffffffffffffffffffffffffffffff\n      and\n        /* \"Practical2.sol\":1162:1169  clients */\n      0x00\n        /* \"Practical2.sol\":1170:1171  i */\n      dup3\n        /* \"Practical2.sol\":1162:1172  clients[i] */\n      dup2\n      sload\n      dup2\n      lt\n      tag_73\n      jumpi\n      tag_74\n      tag_40\n      jump\t// in\n    tag_74:\n    tag_73:\n      swap1\n      0x00\n      mstore\n      keccak256(0x00, 0x20)\n      swap1\n      0x03\n      mul\n      add\n        /* \"Practical2.sol\":1162:1187  clients[i].client_address */\n      0x01\n      add\n      0x00\n      swap1\n      sload\n      swap1\n      0x0100\n      exp\n      swap1\n      div\n      0xffffffffffffffffffffffffffffffffffffffff\n      and\n        /* \"Practical2.sol\":1162:1201  clients[i].client_address == msg.sender */\n      0xffffffffffffffffffffffffffffffffffffffff\n      and\n      sub\n        /* \"Practical2.sol\":1158:1464  if (clients[i].client_address == msg.sender)... */\n      tag_76\n      jumpi\n        /* \"Practical2.sol\":1334:1338  true */\n      0x01\n        /* \"Practical2.sol\":1323:1338  isclient = true */\n      swap2\n      pop\n        /* \"Practical2.sol\":1451:1456  break */\n      jump(tag_71)\n        /* \"Practical2.sol\":1158:1464  if (clients[i].client_address == msg.sender)... */\n    tag_76:\n        /* \"Practical2.sol\":1102:1105  i++ */\n      dup1\n      dup1\n      0x01\n      add\n      swap2\n      pop\n      pop\n        /* \"Practical2.sol\":1065:1467  for (uint i = 0; i < clients.length; i++)... */\n      jump(tag_70)\n    tag_71:\n      pop\n        /* \"Practical2.sol\":1477:1485  isclient */\n      dup1\n        /* \"Practical2.sol\":1469:1517  require(isclient, \"Only clients can call this!\") */\n      tag_77\n      jumpi\n      mload(0x40)\n      0x08c379a000000000000000000000000000000000000000000000000000000000\n      dup2\n      mstore\n      0x04\n      add\n      tag_78\n      swap1\n      tag_45\n      jump\t// in\n    tag_78:\n      mload(0x40)\n      dup1\n      swap2\n      sub\n      swap1\n      revert\n    tag_77:\n        /* \"Practical2.sol\":3348:3352  this */\n      address\n        /* \"Practical2.sol\":3332:3363  payable(address(this)).transfer */\n      0xffffffffffffffffffffffffffffffffffffffff\n      and\n        /* \"Practical2.sol\":3332:3374  payable(address(this)).transfer(msg.value) */\n      0x08fc\n        /* \"Practical2.sol\":3364:3373  msg.value */\n      callvalue\n        /* \"Practical2.sol\":3332:3374  payable(address(this)).transfer(msg.value) */\n      swap1\n      dup2\n      iszero\n      mul\n      swap1\n      mload(0x40)\n      0x00\n      mload(0x40)\n      dup1\n      dup4\n      sub\n      dup2\n      dup6\n      dup9\n      dup9\n      call\n      swap4\n      pop\n      pop\n      pop\n      pop\n      iszero\n      dup1\n      iszero\n      tag_81\n      jumpi\n      returndatasize\n      0x00\n      dup1\n      returndatacopy\n      revert(0x00, returndatasize)\n    tag_81:\n      pop\n        /* \"Practical2.sol\":871:1629  {                  // modifier can check wheather code is... */\n      pop\n        /* \"Practical2.sol\":2992:3514  function deposit() public payable onlyClients... */\n      jump\t// out\n        /* \"Practical2.sol\":1899:2514  function setManager(address managerAddress) public returns(string memory)... */\n    tag_32:\n        /* \"Practical2.sol\":1958:1971  string memory */\n      0x60\n        /* \"Practical2.sol\":2288:2302  managerAddress */\n      dup2\n        /* \"Practical2.sol\":2270:2277  manager */\n      0x02\n      0x00\n        /* \"Practical2.sol\":2270:2303  manager = payable(managerAddress) */\n      0x0100\n      exp\n      dup2\n      sload\n      dup2\n      0xffffffffffffffffffffffffffffffffffffffff\n      mul\n      not\n      and\n      swap1\n      dup4\n      0xffffffffffffffffffffffffffffffffffffffff\n      and\n      mul\n      or\n      swap1\n      sstore\n      pop\n        /* \"Practical2.sol\":2436:2445  return \"\" */\n      mload(0x40)\n      dup1\n      0x20\n      add\n      0x40\n      mstore\n      dup1\n      0x00\n      dup2\n      mstore\n      pop\n      swap1\n      pop\n        /* \"Practical2.sol\":1899:2514  function setManager(address managerAddress) public returns(string memory)... */\n      swap2\n      swap1\n      pop\n      jump\t// out\n        /* \"#utility.yul\":88:205   */\n    tag_84:\n        /* \"#utility.yul\":197:198   */\n      0x00\n        /* \"#utility.yul\":194:195   */\n      dup1\n        /* \"#utility.yul\":187:199   */\n      revert\n        /* \"#utility.yul\":334:411   */\n    tag_86:\n        /* \"#utility.yul\":371:378   */\n      0x00\n        /* \"#utility.yul\":400:405   */\n      dup2\n        /* \"#utility.yul\":389:405   */\n      swap1\n      pop\n        /* \"#utility.yul\":334:411   */\n      swap2\n      swap1\n      pop\n      jump\t// out\n        /* \"#utility.yul\":417:539   */\n    tag_87:\n        /* \"#utility.yul\":490:514   */\n      tag_111\n        /* \"#utility.yul\":508:513   */\n      dup2\n        /* \"#utility.yul\":490:514   */\n      tag_86\n      jump\t// in\n    tag_111:\n        /* \"#utility.yul\":483:488   */\n      dup2\n        /* \"#utility.yul\":480:515   */\n      eq\n        /* \"#utility.yul\":470:533   */\n      tag_112\n      jumpi\n        /* \"#utility.yul\":529:530   */\n      0x00\n        /* \"#utility.yul\":526:527   */\n      dup1\n        /* \"#utility.yul\":519:531   */\n      revert\n        /* \"#utility.yul\":470:533   */\n    tag_112:\n        /* \"#utility.yul\":417:539   */\n      pop\n      jump\t// out\n        /* \"#utility.yul\":545:684   */\n    tag_88:\n        /* \"#utility.yul\":591:596   */\n      0x00\n        /* \"#utility.yul\":629:635   */\n      dup2\n        /* \"#utility.yul\":616:636   */\n      calldataload\n        /* \"#utility.yul\":607:636   */\n      swap1\n      pop\n        /* \"#utility.yul\":645:678   */\n      tag_114\n        /* \"#utility.yul\":672:677   */\n      dup2\n        /* \"#utility.yul\":645:678   */\n      tag_87\n      jump\t// in\n    tag_114:\n        /* \"#utility.yul\":545:684   */\n      swap3\n      swap2\n      pop\n      pop\n      jump\t// out\n        /* \"#utility.yul\":690:1019   */\n    tag_13:\n        /* \"#utility.yul\":749:755   */\n      0x00\n        /* \"#utility.yul\":798:800   */\n      0x20\n        /* \"#utility.yul\":786:795   */\n      dup3\n        /* \"#utility.yul\":777:784   */\n      dup5\n        /* \"#utility.yul\":773:796   */\n      sub\n        /* \"#utility.yul\":769:801   */\n      slt\n        /* \"#utility.yul\":766:885   */\n      iszero\n      tag_116\n      jumpi\n        /* \"#utility.yul\":804:883   */\n      tag_117\n      tag_84\n      jump\t// in\n    tag_117:\n        /* \"#utility.yul\":766:885   */\n    tag_116:\n        /* \"#utility.yul\":924:925   */\n      0x00\n        /* \"#utility.yul\":949:1002   */\n      tag_118\n        /* \"#utility.yul\":994:1001   */\n      dup5\n        /* \"#utility.yul\":985:991   */\n      dup3\n        /* \"#utility.yul\":974:983   */\n      dup6\n        /* \"#utility.yul\":970:992   */\n      add\n        /* \"#utility.yul\":949:1002   */\n      tag_88\n      jump\t// in\n    tag_118:\n        /* \"#utility.yul\":939:1002   */\n      swap2\n      pop\n        /* \"#utility.yul\":895:1012   */\n      pop\n        /* \"#utility.yul\":690:1019   */\n      swap3\n      swap2\n      pop\n      pop\n      jump\t// out\n        /* \"#utility.yul\":1025:1143   */\n    tag_89:\n        /* \"#utility.yul\":1112:1136   */\n      tag_120\n        /* \"#utility.yul\":1130:1135   */\n      dup2\n        /* \"#utility.yul\":1112:1136   */\n      tag_86\n      jump\t// in\n    tag_120:\n        /* \"#utility.yul\":1107:1110   */\n      dup3\n        /* \"#utility.yul\":1100:1137   */\n      mstore\n        /* \"#utility.yul\":1025:1143   */\n      pop\n      pop\n      jump\t// out\n        /* \"#utility.yul\":1149:1371   */\n    tag_19:\n        /* \"#utility.yul\":1242:1246   */\n      0x00\n        /* \"#utility.yul\":1280:1282   */\n      0x20\n        /* \"#utility.yul\":1269:1278   */\n      dup3\n        /* \"#utility.yul\":1265:1283   */\n      add\n        /* \"#utility.yul\":1257:1283   */\n      swap1\n      pop\n        /* \"#utility.yul\":1293:1364   */\n      tag_122\n        /* \"#utility.yul\":1361:1362   */\n      0x00\n        /* \"#utility.yul\":1350:1359   */\n      dup4\n        /* \"#utility.yul\":1346:1363   */\n      add\n        /* \"#utility.yul\":1337:1343   */\n      dup5\n        /* \"#utility.yul\":1293:1364   */\n      tag_89\n      jump\t// in\n    tag_122:\n        /* \"#utility.yul\":1149:1371   */\n      swap3\n      swap2\n      pop\n      pop\n      jump\t// out\n        /* \"#utility.yul\":1377:1476   */\n    tag_90:\n        /* \"#utility.yul\":1429:1435   */\n      0x00\n        /* \"#utility.yul\":1463:1468   */\n      dup2\n        /* \"#utility.yul\":1457:1469   */\n      mload\n        /* \"#utility.yul\":1447:1469   */\n      swap1\n      pop\n        /* \"#utility.yul\":1377:1476   */\n      swap2\n      swap1\n      pop\n      jump\t// out\n        /* \"#utility.yul\":1482:1651   */\n    tag_91:\n        /* \"#utility.yul\":1566:1577   */\n      0x00\n        /* \"#utility.yul\":1600:1606   */\n      dup3\n        /* \"#utility.yul\":1595:1598   */\n      dup3\n        /* \"#utility.yul\":1588:1607   */\n      mstore\n        /* \"#utility.yul\":1640:1644   */\n      0x20\n        /* \"#utility.yul\":1635:1638   */\n      dup3\n        /* \"#utility.yul\":1631:1645   */\n      add\n        /* \"#utility.yul\":1616:1645   */\n      swap1\n      pop\n        /* \"#utility.yul\":1482:1651   */\n      swap3\n      swap2\n      pop\n      pop\n      jump\t// out\n        /* \"#utility.yul\":1657:1903   */\n    tag_92:\n        /* \"#utility.yul\":1738:1739   */\n      0x00\n        /* \"#utility.yul\":1748:1861   */\n    tag_126:\n        /* \"#utility.yul\":1762:1768   */\n      dup4\n        /* \"#utility.yul\":1759:1760   */\n      dup2\n        /* \"#utility.yul\":1756:1769   */\n      lt\n        /* \"#utility.yul\":1748:1861   */\n      iszero\n      tag_128\n      jumpi\n        /* \"#utility.yul\":1847:1848   */\n      dup1\n        /* \"#utility.yul\":1842:1845   */\n      dup3\n        /* \"#utility.yul\":1838:1849   */\n      add\n        /* \"#utility.yul\":1832:1850   */\n      mload\n        /* \"#utility.yul\":1828:1829   */\n      dup2\n        /* \"#utility.yul\":1823:1826   */\n      dup5\n        /* \"#utility.yul\":1819:1830   */\n      add\n        /* \"#utility.yul\":1812:1851   */\n      mstore\n        /* \"#utility.yul\":1784:1786   */\n      0x20\n        /* \"#utility.yul\":1781:1782   */\n      dup2\n        /* \"#utility.yul\":1777:1787   */\n      add\n        /* \"#utility.yul\":1772:1787   */\n      swap1\n      pop\n        /* \"#utility.yul\":1748:1861   */\n      jump(tag_126)\n    tag_128:\n        /* \"#utility.yul\":1895:1896   */\n      0x00\n        /* \"#utility.yul\":1886:1892   */\n      dup5\n        /* \"#utility.yul\":1881:1884   */\n      dup5\n        /* \"#utility.yul\":1877:1893   */\n      add\n        /* \"#utility.yul\":1870:1897   */\n      mstore\n        /* \"#utility.yul\":1719:1903   */\n      pop\n        /* \"#utility.yul\":1657:1903   */\n      pop\n      pop\n      pop\n      jump\t// out\n        /* \"#utility.yul\":1909:2011   */\n    tag_93:\n        /* \"#utility.yul\":1950:1956   */\n      0x00\n        /* \"#utility.yul\":2001:2003   */\n      0x1f\n        /* \"#utility.yul\":1997:2004   */\n      not\n        /* \"#utility.yul\":1992:1994   */\n      0x1f\n        /* \"#utility.yul\":1985:1990   */\n      dup4\n        /* \"#utility.yul\":1981:1995   */\n      add\n        /* \"#utility.yul\":1977:2005   */\n      and\n        /* \"#utility.yul\":1967:2005   */\n      swap1\n      pop\n        /* \"#utility.yul\":1909:2011   */\n      swap2\n      swap1\n      pop\n      jump\t// out\n        /* \"#utility.yul\":2017:2394   */\n    tag_94:\n        /* \"#utility.yul\":2105:2108   */\n      0x00\n        /* \"#utility.yul\":2133:2172   */\n      tag_131\n        /* \"#utility.yul\":2166:2171   */\n      dup3\n        /* \"#utility.yul\":2133:2172   */\n      tag_90\n      jump\t// in\n    tag_131:\n        /* \"#utility.yul\":2188:2259   */\n      tag_132\n        /* \"#utility.yul\":2252:2258   */\n      dup2\n        /* \"#utility.yul\":2247:2250   */\n      dup6\n        /* \"#utility.yul\":2188:2259   */\n      tag_91\n      jump\t// in\n    tag_132:\n        /* \"#utility.yul\":2181:2259   */\n      swap4\n      pop\n        /* \"#utility.yul\":2268:2333   */\n      tag_133\n        /* \"#utility.yul\":2326:2332   */\n      dup2\n        /* \"#utility.yul\":2321:2324   */\n      dup6\n        /* \"#utility.yul\":2314:2318   */\n      0x20\n        /* \"#utility.yul\":2307:2312   */\n      dup7\n        /* \"#utility.yul\":2303:2319   */\n      add\n        /* \"#utility.yul\":2268:2333   */\n      tag_92\n      jump\t// in\n    tag_133:\n        /* \"#utility.yul\":2358:2387   */\n      tag_134\n        /* \"#utility.yul\":2380:2386   */\n      dup2\n        /* \"#utility.yul\":2358:2387   */\n      tag_93\n      jump\t// in\n    tag_134:\n        /* \"#utility.yul\":2353:2356   */\n      dup5\n        /* \"#utility.yul\":2349:2388   */\n      add\n        /* \"#utility.yul\":2342:2388   */\n      swap2\n      pop\n        /* \"#utility.yul\":2109:2394   */\n      pop\n        /* \"#utility.yul\":2017:2394   */\n      swap3\n      swap2\n      pop\n      pop\n      jump\t// out\n        /* \"#utility.yul\":2400:2713   */\n    tag_25:\n        /* \"#utility.yul\":2513:2517   */\n      0x00\n        /* \"#utility.yul\":2551:2553   */\n      0x20\n        /* \"#utility.yul\":2540:2549   */\n      dup3\n        /* \"#utility.yul\":2536:2554   */\n      add\n        /* \"#utility.yul\":2528:2554   */\n      swap1\n      pop\n        /* \"#utility.yul\":2600:2609   */\n      dup2\n        /* \"#utility.yul\":2594:2598   */\n      dup2\n        /* \"#utility.yul\":2590:2610   */\n      sub\n        /* \"#utility.yul\":2586:2587   */\n      0x00\n        /* \"#utility.yul\":2575:2584   */\n      dup4\n        /* \"#utility.yul\":2571:2588   */\n      add\n        /* \"#utility.yul\":2564:2611   */\n      mstore\n        /* \"#utility.yul\":2628:2706   */\n      tag_136\n        /* \"#utility.yul\":2701:2705   */\n      dup2\n        /* \"#utility.yul\":2692:2698   */\n      dup5\n        /* \"#utility.yul\":2628:2706   */\n      tag_94\n      jump\t// in\n    tag_136:\n        /* \"#utility.yul\":2620:2706   */\n      swap1\n      pop\n        /* \"#utility.yul\":2400:2713   */\n      swap3\n      swap2\n      pop\n      pop\n      jump\t// out\n        /* \"#utility.yul\":2719:2845   */\n    tag_95:\n        /* \"#utility.yul\":2756:2763   */\n      0x00\n        /* \"#utility.yul\":2796:2838   */\n      0xffffffffffffffffffffffffffffffffffffffff\n        /* \"#utility.yul\":2789:2794   */\n      dup3\n        /* \"#utility.yul\":2785:2839   */\n      and\n        /* \"#utility.yul\":2774:2839   */\n      swap1\n      pop\n        /* \"#utility.yul\":2719:2845   */\n      swap2\n      swap1\n      pop\n      jump\t// out\n        /* \"#utility.yul\":2851:2947   */\n    tag_96:\n        /* \"#utility.yul\":2888:2895   */\n      0x00\n        /* \"#utility.yul\":2917:2941   */\n      tag_139\n        /* \"#utility.yul\":2935:2940   */\n      dup3\n        /* \"#utility.yul\":2917:2941   */\n      tag_95\n      jump\t// in\n    tag_139:\n        /* \"#utility.yul\":2906:2941   */\n      swap1\n      pop\n        /* \"#utility.yul\":2851:2947   */\n      swap2\n      swap1\n      pop\n      jump\t// out\n        /* \"#utility.yul\":2953:3075   */\n    tag_97:\n        /* \"#utility.yul\":3026:3050   */\n      tag_141\n        /* \"#utility.yul\":3044:3049   */\n      dup2\n        /* \"#utility.yul\":3026:3050   */\n      tag_96\n      jump\t// in\n    tag_141:\n        /* \"#utility.yul\":3019:3024   */\n      dup2\n        /* \"#utility.yul\":3016:3051   */\n      eq\n        /* \"#utility.yul\":3006:3069   */\n      tag_142\n      jumpi\n        /* \"#utility.yul\":3065:3066   */\n      0x00\n        /* \"#utility.yul\":3062:3063   */\n      dup1\n        /* \"#utility.yul\":3055:3067   */\n      revert\n        /* \"#utility.yul\":3006:3069   */\n    tag_142:\n        /* \"#utility.yul\":2953:3075   */\n      pop\n      jump\t// out\n        /* \"#utility.yul\":3081:3220   */\n    tag_98:\n        /* \"#utility.yul\":3127:3132   */\n      0x00\n        /* \"#utility.yul\":3165:3171   */\n      dup2\n        /* \"#utility.yul\":3152:3172   */\n      calldataload\n        /* \"#utility.yul\":3143:3172   */\n      swap1\n      pop\n        /* \"#utility.yul\":3181:3214   */\n      tag_144\n        /* \"#utility.yul\":3208:3213   */\n      dup2\n        /* \"#utility.yul\":3181:3214   */\n      tag_97\n      jump\t// in\n    tag_144:\n        /* \"#utility.yul\":3081:3220   */\n      swap3\n      swap2\n      pop\n      pop\n      jump\t// out\n        /* \"#utility.yul\":3226:3555   */\n    tag_31:\n        /* \"#utility.yul\":3285:3291   */\n      0x00\n        /* \"#utility.yul\":3334:3336   */\n      0x20\n        /* \"#utility.yul\":3322:3331   */\n      dup3\n        /* \"#utility.yul\":3313:3320   */\n      dup5\n        /* \"#utility.yul\":3309:3332   */\n      sub\n        /* \"#utility.yul\":3305:3337   */\n      slt\n        /* \"#utility.yul\":3302:3421   */\n      iszero\n      tag_146\n      jumpi\n        /* \"#utility.yul\":3340:3419   */\n      tag_147\n      tag_84\n      jump\t// in\n    tag_147:\n        /* \"#utility.yul\":3302:3421   */\n    tag_146:\n        /* \"#utility.yul\":3460:3461   */\n      0x00\n        /* \"#utility.yul\":3485:3538   */\n      tag_148\n        /* \"#utility.yul\":3530:3537   */\n      dup5\n        /* \"#utility.yul\":3521:3527   */\n      dup3\n        /* \"#utility.yul\":3510:3519   */\n      dup6\n        /* \"#utility.yul\":3506:3528   */\n      add\n        /* \"#utility.yul\":3485:3538   */\n      tag_98\n      jump\t// in\n    tag_148:\n        /* \"#utility.yul\":3475:3538   */\n      swap2\n      pop\n        /* \"#utility.yul\":3431:3548   */\n      pop\n        /* \"#utility.yul\":3226:3555   */\n      swap3\n      swap2\n      pop\n      pop\n      jump\t// out\n        /* \"#utility.yul\":3561:3741   */\n    tag_40:\n        /* \"#utility.yul\":3609:3686   */\n      0x4e487b7100000000000000000000000000000000000000000000000000000000\n        /* \"#utility.yul\":3606:3607   */\n      0x00\n        /* \"#utility.yul\":3599:3687   */\n      mstore\n        /* \"#utility.yul\":3706:3710   */\n      0x32\n        /* \"#utility.yul\":3703:3704   */\n      0x04\n        /* \"#utility.yul\":3696:3711   */\n      mstore\n        /* \"#utility.yul\":3730:3734   */\n      0x24\n        /* \"#utility.yul\":3727:3728   */\n      0x00\n        /* \"#utility.yul\":3720:3735   */\n      revert\n        /* \"#utility.yul\":3747:3924   */\n    tag_99:\n        /* \"#utility.yul\":3887:3916   */\n      0x4f6e6c7920636c69656e74732063616e2063616c6c2074686973210000000000\n        /* \"#utility.yul\":3883:3884   */\n      0x00\n        /* \"#utility.yul\":3875:3881   */\n      dup3\n        /* \"#utility.yul\":3871:3885   */\n      add\n        /* \"#utility.yul\":3864:3917   */\n      mstore\n        /* \"#utility.yul\":3747:3924   */\n      pop\n      jump\t// out\n        /* \"#utility.yul\":3930:4296   */\n    tag_100:\n        /* \"#utility.yul\":4072:4075   */\n      0x00\n        /* \"#utility.yul\":4093:4160   */\n      tag_152\n        /* \"#utility.yul\":4157:4159   */\n      0x1b\n        /* \"#utility.yul\":4152:4155   */\n      dup4\n        /* \"#utility.yul\":4093:4160   */\n      tag_91\n      jump\t// in\n    tag_152:\n        /* \"#utility.yul\":4086:4160   */\n      swap2\n      pop\n        /* \"#utility.yul\":4169:4262   */\n      tag_153\n        /* \"#utility.yul\":4258:4261   */\n      dup3\n        /* \"#utility.yul\":4169:4262   */\n      tag_99\n      jump\t// in\n    tag_153:\n        /* \"#utility.yul\":4287:4289   */\n      0x20\n        /* \"#utility.yul\":4282:4285   */\n      dup3\n        /* \"#utility.yul\":4278:4290   */\n      add\n        /* \"#utility.yul\":4271:4290   */\n      swap1\n      pop\n        /* \"#utility.yul\":3930:4296   */\n      swap2\n      swap1\n      pop\n      jump\t// out\n        /* \"#utility.yul\":4302:4721   */\n    tag_45:\n        /* \"#utility.yul\":4468:4472   */\n      0x00\n        /* \"#utility.yul\":4506:4508   */\n      0x20\n        /* \"#utility.yul\":4495:4504   */\n      dup3\n        /* \"#utility.yul\":4491:4509   */\n      add\n        /* \"#utility.yul\":4483:4509   */\n      swap1\n      pop\n        /* \"#utility.yul\":4555:4564   */\n      dup2\n        /* \"#utility.yul\":4549:4553   */\n      dup2\n        /* \"#utility.yul\":4545:4565   */\n      sub\n        /* \"#utility.yul\":4541:4542   */\n      0x00\n        /* \"#utility.yul\":4530:4539   */\n      dup4\n        /* \"#utility.yul\":4526:4543   */\n      add\n        /* \"#utility.yul\":4519:4566   */\n      mstore\n        /* \"#utility.yul\":4583:4714   */\n      tag_155\n        /* \"#utility.yul\":4709:4713   */\n      dup2\n        /* \"#utility.yul\":4583:4714   */\n      tag_100\n      jump\t// in\n    tag_155:\n        /* \"#utility.yul\":4575:4714   */\n      swap1\n      pop\n        /* \"#utility.yul\":4302:4721   */\n      swap2\n      swap1\n      pop\n      jump\t// out\n        /* \"#utility.yul\":4727:4907   */\n    tag_101:\n        /* \"#utility.yul\":4775:4852   */\n      0x4e487b7100000000000000000000000000000000000000000000000000000000\n        /* \"#utility.yul\":4772:4773   */\n      0x00\n        /* \"#utility.yul\":4765:4853   */\n      mstore\n        /* \"#utility.yul\":4872:4876   */\n      0x11\n        /* \"#utility.yul\":4869:4870   */\n      0x04\n        /* \"#utility.yul\":4862:4877   */\n      mstore\n        /* \"#utility.yul\":4896:4900   */\n      0x24\n        /* \"#utility.yul\":4893:4894   */\n      0x00\n        /* \"#utility.yul\":4886:4901   */\n      revert\n        /* \"#utility.yul\":4913:5323   */\n    tag_48:\n        /* \"#utility.yul\":4953:4960   */\n      0x00\n        /* \"#utility.yul\":4976:4996   */\n      tag_158\n        /* \"#utility.yul\":4994:4995   */\n      dup3\n        /* \"#utility.yul\":4976:4996   */\n      tag_86\n      jump\t// in\n    tag_158:\n        /* \"#utility.yul\":4971:4996   */\n      swap2\n      pop\n        /* \"#utility.yul\":5010:5030   */\n      tag_159\n        /* \"#utility.yul\":5028:5029   */\n      dup4\n        /* \"#utility.yul\":5010:5030   */\n      tag_86\n      jump\t// in\n    tag_159:\n        /* \"#utility.yul\":5005:5030   */\n      swap3\n      pop\n        /* \"#utility.yul\":5065:5066   */\n      dup3\n        /* \"#utility.yul\":5062:5063   */\n      dup3\n        /* \"#utility.yul\":5058:5067   */\n      mul\n        /* \"#utility.yul\":5087:5117   */\n      tag_160\n        /* \"#utility.yul\":5105:5116   */\n      dup2\n        /* \"#utility.yul\":5087:5117   */\n      tag_86\n      jump\t// in\n    tag_160:\n        /* \"#utility.yul\":5076:5117   */\n      swap2\n      pop\n        /* \"#utility.yul\":5266:5267   */\n      dup3\n        /* \"#utility.yul\":5257:5264   */\n      dup3\n        /* \"#utility.yul\":5253:5268   */\n      div\n        /* \"#utility.yul\":5250:5251   */\n      dup5\n        /* \"#utility.yul\":5247:5269   */\n      eq\n        /* \"#utility.yul\":5227:5228   */\n      dup4\n        /* \"#utility.yul\":5220:5229   */\n      iszero\n        /* \"#utility.yul\":5200:5283   */\n      or\n        /* \"#utility.yul\":5177:5316   */\n      tag_161\n      jumpi\n        /* \"#utility.yul\":5296:5314   */\n      tag_162\n      tag_101\n      jump\t// in\n    tag_162:\n        /* \"#utility.yul\":5177:5316   */\n    tag_161:\n        /* \"#utility.yul\":4961:5323   */\n      pop\n        /* \"#utility.yul\":4913:5323   */\n      swap3\n      swap2\n      pop\n      pop\n      jump\t// out\n        /* \"#utility.yul\":5329:5506   */\n    tag_102:\n        /* \"#utility.yul\":5469:5498   */\n      0x4f6e6c79206d616e616765722063616e2063616c6c2074686973210000000000\n        /* \"#utility.yul\":5465:5466   */\n      0x00\n        /* \"#utility.yul\":5457:5463   */\n      dup3\n        /* \"#utility.yul\":5453:5467   */\n      add\n        /* \"#utility.yul\":5446:5499   */\n      mstore\n        /* \"#utility.yul\":5329:5506   */\n      pop\n      jump\t// out\n        /* \"#utility.yul\":5512:5878   */\n    tag_103:\n        /* \"#utility.yul\":5654:5657   */\n      0x00\n        /* \"#utility.yul\":5675:5742   */\n      tag_165\n        /* \"#utility.yul\":5739:5741   */\n      0x1b\n        /* \"#utility.yul\":5734:5737   */\n      dup4\n        /* \"#utility.yul\":5675:5742   */\n      tag_91\n      jump\t// in\n    tag_165:\n        /* \"#utility.yul\":5668:5742   */\n      swap2\n      pop\n        /* \"#utility.yul\":5751:5844   */\n      tag_166\n        /* \"#utility.yul\":5840:5843   */\n      dup3\n        /* \"#utility.yul\":5751:5844   */\n      tag_102\n      jump\t// in\n    tag_166:\n        /* \"#utility.yul\":5869:5871   */\n      0x20\n        /* \"#utility.yul\":5864:5867   */\n      dup3\n        /* \"#utility.yul\":5860:5872   */\n      add\n        /* \"#utility.yul\":5853:5872   */\n      swap1\n      pop\n        /* \"#utility.yul\":5512:5878   */\n      swap2\n      swap1\n      pop\n      jump\t// out\n        /* \"#utility.yul\":5884:6303   */\n    tag_55:\n        /* \"#utility.yul\":6050:6054   */\n      0x00\n        /* \"#utility.yul\":6088:6090   */\n      0x20\n        /* \"#utility.yul\":6077:6086   */\n      dup3\n        /* \"#utility.yul\":6073:6091   */\n      add\n        /* \"#utility.yul\":6065:6091   */\n      swap1\n      pop\n        /* \"#utility.yul\":6137:6146   */\n      dup2\n        /* \"#utility.yul\":6131:6135   */\n      dup2\n        /* \"#utility.yul\":6127:6147   */\n      sub\n        /* \"#utility.yul\":6123:6124   */\n      0x00\n        /* \"#utility.yul\":6112:6121   */\n      dup4\n        /* \"#utility.yul\":6108:6125   */\n      add\n        /* \"#utility.yul\":6101:6148   */\n      mstore\n        /* \"#utility.yul\":6165:6296   */\n      tag_168\n        /* \"#utility.yul\":6291:6295   */\n      dup2\n        /* \"#utility.yul\":6165:6296   */\n      tag_103\n      jump\t// in\n    tag_168:\n        /* \"#utility.yul\":6157:6296   */\n      swap1\n      pop\n        /* \"#utility.yul\":5884:6303   */\n      swap2\n      swap1\n      pop\n      jump\t// out\n        /* \"#utility.yul\":6309:6385   */\n    tag_104:\n        /* \"#utility.yul\":6345:6352   */\n      0x00\n        /* \"#utility.yul\":6374:6379   */\n      dup2\n        /* \"#utility.yul\":6363:6379   */\n      swap1\n      pop\n        /* \"#utility.yul\":6309:6385   */\n      swap2\n      swap1\n      pop\n      jump\t// out\n        /* \"#utility.yul\":6391:6622   */\n    tag_67:\n        /* \"#utility.yul\":6429:6432   */\n      0x00\n        /* \"#utility.yul\":6452:6475   */\n      tag_171\n        /* \"#utility.yul\":6469:6474   */\n      dup3\n        /* \"#utility.yul\":6452:6475   */\n      tag_104\n      jump\t// in\n    tag_171:\n        /* \"#utility.yul\":6443:6475   */\n      swap2\n      pop\n        /* \"#utility.yul\":6497:6563   */\n      0x7fffffffffffffffffffffffffffffffffffffffffffffffffffffffffffffff\n        /* \"#utility.yul\":6490:6495   */\n      dup3\n        /* \"#utility.yul\":6487:6564   */\n      sub\n        /* \"#utility.yul\":6484:6587   */\n      tag_172\n      jumpi\n        /* \"#utility.yul\":6567:6585   */\n      tag_173\n      tag_101\n      jump\t// in\n    tag_173:\n        /* \"#utility.yul\":6484:6587   */\n    tag_172:\n        /* \"#utility.yul\":6614:6615   */\n      0x01\n        /* \"#utility.yul\":6607:6612   */\n      dup3\n        /* \"#utility.yul\":6603:6616   */\n      add\n        /* \"#utility.yul\":6596:6616   */\n      swap1\n      pop\n        /* \"#utility.yul\":6391:6622   */\n      swap2\n      swap1\n      pop\n      jump\t// out\n\n    auxdata: 0xa2646970667358221220cc0cbd942068951b9ee93ea27a97dfc30739a81dc58fafd3f193f41b21e39a3264736f6c63430008160033\n}\n",
				"bytecode": {
					"linkReferences": {},
					"object": "608060405234801561000f575f80fd5b505f6001819055506109a9806100245f395ff3fe608060405260043610610058575f3560e01c80632e1a7d4d146100635780636f9fb98a1461007f5780639e0a5d68146100a9578063a4092174146100b3578063d0e30db0146100d1578063d0ebdbe7146100db5761005f565b3661005f57005b5f80fd5b61007d60048036038101906100789190610636565b610117565b005b34801561008a575f80fd5b5061009361024c565b6040516100a09190610670565b60405180910390f35b6100b1610253565b005b6100bb610392565b6040516100c89190610713565b60405180910390f35b6100d9610486565b005b3480156100e6575f80fd5b5061010160048036038101906100fc919061078d565b6105a7565b60405161010e9190610713565b60405180910390f35b5f805b5f805490508110156101b0573373ffffffffffffffffffffffffffffffffffffffff165f82815481106101505761014f6107b8565b5b905f5260205f2090600302016001015f9054906101000a900473ffffffffffffffffffffffffffffffffffffffff1673ffffffffffffffffffffffffffffffffffffffff16036101a357600191506101b0565b808060010191505061011a565b50806101f1576040517f08c379a00000000000000000000000000000000000000000000000000000000081526004016101e89061082f565b60405180910390fd5b3373ffffffffffffffffffffffffffffffffffffffff166108fc670de0b6b3a76400008461021f919061087a565b90811502906040515f60405180830381858888f19350505050158015610247573d5f803e3d5ffd5b505050565b5f47905090565b60025f9054906101000a900473ffffffffffffffffffffffffffffffffffffffff1673ffffffffffffffffffffffffffffffffffffffff163373ffffffffffffffffffffffffffffffffffffffff16146102e2576040517f08c379a00000000000000000000000000000000000000000000000000000000081526004016102d990610905565b60405180910390fd5b5f5b5f8054905081101561038f575f808281548110610304576103036107b8565b5b905f5260205f2090600302016001015f9054906101000a900473ffffffffffffffffffffffffffffffffffffffff1690508073ffffffffffffffffffffffffffffffffffffffff166108fc670de0b6b3a764000090811502906040515f60405180830381858888f19350505050158015610380573d5f803e3d5ffd5b505080806001019150506102e4565b50565b60605f604051806060016040528060015f8154809291906103b29061092c565b9190505581526020013373ffffffffffffffffffffffffffffffffffffffff1681526020013373ffffffffffffffffffffffffffffffffffffffff1631815250908060018154018082558091505060019003905f5260205f2090600302015f909190919091505f820151815f01556020820151816001015f6101000a81548173ffffffffffffffffffffffffffffffffffffffff021916908373ffffffffffffffffffffffffffffffffffffffff16021790555060408201518160020155505060405180602001604052805f815250905090565b5f805b5f8054905081101561051f573373ffffffffffffffffffffffffffffffffffffffff165f82815481106104bf576104be6107b8565b5b905f5260205f2090600302016001015f9054906101000a900473ffffffffffffffffffffffffffffffffffffffff1673ffffffffffffffffffffffffffffffffffffffff1603610512576001915061051f565b8080600101915050610489565b5080610560576040517f08c379a00000000000000000000000000000000000000000000000000000000081526004016105579061082f565b60405180910390fd5b3073ffffffffffffffffffffffffffffffffffffffff166108fc3490811502906040515f60405180830381858888f193505050501580156105a3573d5f803e3d5ffd5b5050565b60608160025f6101000a81548173ffffffffffffffffffffffffffffffffffffffff021916908373ffffffffffffffffffffffffffffffffffffffff16021790555060405180602001604052805f8152509050919050565b5f80fd5b5f819050919050565b61061581610603565b811461061f575f80fd5b50565b5f813590506106308161060c565b92915050565b5f6020828403121561064b5761064a6105ff565b5b5f61065884828501610622565b91505092915050565b61066a81610603565b82525050565b5f6020820190506106835f830184610661565b92915050565b5f81519050919050565b5f82825260208201905092915050565b5f5b838110156106c05780820151818401526020810190506106a5565b5f8484015250505050565b5f601f19601f8301169050919050565b5f6106e582610689565b6106ef8185610693565b93506106ff8185602086016106a3565b610708816106cb565b840191505092915050565b5f6020820190508181035f83015261072b81846106db565b905092915050565b5f73ffffffffffffffffffffffffffffffffffffffff82169050919050565b5f61075c82610733565b9050919050565b61076c81610752565b8114610776575f80fd5b50565b5f8135905061078781610763565b92915050565b5f602082840312156107a2576107a16105ff565b5b5f6107af84828501610779565b91505092915050565b7f4e487b71000000000000000000000000000000000000000000000000000000005f52603260045260245ffd5b7f4f6e6c7920636c69656e74732063616e2063616c6c20746869732100000000005f82015250565b5f610819601b83610693565b9150610824826107e5565b602082019050919050565b5f6020820190508181035f8301526108468161080d565b9050919050565b7f4e487b71000000000000000000000000000000000000000000000000000000005f52601160045260245ffd5b5f61088482610603565b915061088f83610603565b925082820261089d81610603565b915082820484148315176108b4576108b361084d565b5b5092915050565b7f4f6e6c79206d616e616765722063616e2063616c6c20746869732100000000005f82015250565b5f6108ef601b83610693565b91506108fa826108bb565b602082019050919050565b5f6020820190508181035f83015261091c816108e3565b9050919050565b5f819050919050565b5f61093682610923565b91507f7fffffffffffffffffffffffffffffffffffffffffffffffffffffffffffffff82036109685761096761084d565b5b60018201905091905056fea2646970667358221220cc0cbd942068951b9ee93ea27a97dfc30739a81dc58fafd3f193f41b21e39a3264736f6c63430008160033",
					"opcodes": "PUSH1 0x80 PUSH1 0x40 MSTORE CALLVALUE DUP1 ISZERO PUSH2 0xF JUMPI PUSH0 DUP1 REVERT JUMPDEST POP PUSH0 PUSH1 0x1 DUP2 SWAP1 SSTORE POP PUSH2 0x9A9 DUP1 PUSH2 0x24 PUSH0 CODECOPY PUSH0 RETURN INVALID PUSH1 0x80 PUSH1 0x40 MSTORE PUSH1 0x4 CALLDATASIZE LT PUSH2 0x58 JUMPI PUSH0 CALLDATALOAD PUSH1 0xE0 SHR DUP1 PUSH4 0x2E1A7D4D EQ PUSH2 0x63 JUMPI DUP1 PUSH4 0x6F9FB98A EQ PUSH2 0x7F JUMPI DUP1 PUSH4 0x9E0A5D68 EQ PUSH2 0xA9 JUMPI DUP1 PUSH4 0xA4092174 EQ PUSH2 0xB3 JUMPI DUP1 PUSH4 0xD0E30DB0 EQ PUSH2 0xD1 JUMPI DUP1 PUSH4 0xD0EBDBE7 EQ PUSH2 0xDB JUMPI PUSH2 0x5F JUMP JUMPDEST CALLDATASIZE PUSH2 0x5F JUMPI STOP JUMPDEST PUSH0 DUP1 REVERT JUMPDEST PUSH2 0x7D PUSH1 0x4 DUP1 CALLDATASIZE SUB DUP2 ADD SWAP1 PUSH2 0x78 SWAP2 SWAP1 PUSH2 0x636 JUMP JUMPDEST PUSH2 0x117 JUMP JUMPDEST STOP JUMPDEST CALLVALUE DUP1 ISZERO PUSH2 0x8A JUMPI PUSH0 DUP1 REVERT JUMPDEST POP PUSH2 0x93 PUSH2 0x24C JUMP JUMPDEST PUSH1 0x40 MLOAD PUSH2 0xA0 SWAP2 SWAP1 PUSH2 0x670 JUMP JUMPDEST PUSH1 0x40 MLOAD DUP1 SWAP2 SUB SWAP1 RETURN JUMPDEST PUSH2 0xB1 PUSH2 0x253 JUMP JUMPDEST STOP JUMPDEST PUSH2 0xBB PUSH2 0x392 JUMP JUMPDEST PUSH1 0x40 MLOAD PUSH2 0xC8 SWAP2 SWAP1 PUSH2 0x713 JUMP JUMPDEST PUSH1 0x40 MLOAD DUP1 SWAP2 SUB SWAP1 RETURN JUMPDEST PUSH2 0xD9 PUSH2 0x486 JUMP JUMPDEST STOP JUMPDEST CALLVALUE DUP1 ISZERO PUSH2 0xE6 JUMPI PUSH0 DUP1 REVERT JUMPDEST POP PUSH2 0x101 PUSH1 0x4 DUP1 CALLDATASIZE SUB DUP2 ADD SWAP1 PUSH2 0xFC SWAP2 SWAP1 PUSH2 0x78D JUMP JUMPDEST PUSH2 0x5A7 JUMP JUMPDEST PUSH1 0x40 MLOAD PUSH2 0x10E SWAP2 SWAP1 PUSH2 0x713 JUMP JUMPDEST PUSH1 0x40 MLOAD DUP1 SWAP2 SUB SWAP1 RETURN JUMPDEST PUSH0 DUP1 JUMPDEST PUSH0 DUP1 SLOAD SWAP1 POP DUP2 LT ISZERO PUSH2 0x1B0 JUMPI CALLER PUSH20 0xFFFFFFFFFFFFFFFFFFFFFFFFFFFFFFFFFFFFFFFF AND PUSH0 DUP3 DUP2 SLOAD DUP2 LT PUSH2 0x150 JUMPI PUSH2 0x14F PUSH2 0x7B8 JUMP JUMPDEST JUMPDEST SWAP1 PUSH0 MSTORE PUSH1 0x20 PUSH0 KECCAK256 SWAP1 PUSH1 0x3 MUL ADD PUSH1 0x1 ADD PUSH0 SWAP1 SLOAD SWAP1 PUSH2 0x100 EXP SWAP1 DIV PUSH20 0xFFFFFFFFFFFFFFFFFFFFFFFFFFFFFFFFFFFFFFFF AND PUSH20 0xFFFFFFFFFFFFFFFFFFFFFFFFFFFFFFFFFFFFFFFF AND SUB PUSH2 0x1A3 JUMPI PUSH1 0x1 SWAP2 POP PUSH2 0x1B0 JUMP JUMPDEST DUP1 DUP1 PUSH1 0x1 ADD SWAP2 POP POP PUSH2 0x11A JUMP JUMPDEST POP DUP1 PUSH2 0x1F1 JUMPI PUSH1 0x40 MLOAD PUSH32 0x8C379A000000000000000000000000000000000000000000000000000000000 DUP2 MSTORE PUSH1 0x4 ADD PUSH2 0x1E8 SWAP1 PUSH2 0x82F JUMP JUMPDEST PUSH1 0x40 MLOAD DUP1 SWAP2 SUB SWAP1 REVERT JUMPDEST CALLER PUSH20 0xFFFFFFFFFFFFFFFFFFFFFFFFFFFFFFFFFFFFFFFF AND PUSH2 0x8FC PUSH8 0xDE0B6B3A7640000 DUP5 PUSH2 0x21F SWAP2 SWAP1 PUSH2 0x87A JUMP JUMPDEST SWAP1 DUP2 ISZERO MUL SWAP1 PUSH1 0x40 MLOAD PUSH0 PUSH1 0x40 MLOAD DUP1 DUP4 SUB DUP2 DUP6 DUP9 DUP9 CALL SWAP4 POP POP POP POP ISZERO DUP1 ISZERO PUSH2 0x247 JUMPI RETURNDATASIZE PUSH0 DUP1 RETURNDATACOPY RETURNDATASIZE PUSH0 REVERT JUMPDEST POP POP POP JUMP JUMPDEST PUSH0 SELFBALANCE SWAP1 POP SWAP1 JUMP JUMPDEST PUSH1 0x2 PUSH0 SWAP1 SLOAD SWAP1 PUSH2 0x100 EXP SWAP1 DIV PUSH20 0xFFFFFFFFFFFFFFFFFFFFFFFFFFFFFFFFFFFFFFFF AND PUSH20 0xFFFFFFFFFFFFFFFFFFFFFFFFFFFFFFFFFFFFFFFF AND CALLER PUSH20 0xFFFFFFFFFFFFFFFFFFFFFFFFFFFFFFFFFFFFFFFF AND EQ PUSH2 0x2E2 JUMPI PUSH1 0x40 MLOAD PUSH32 0x8C379A000000000000000000000000000000000000000000000000000000000 DUP2 MSTORE PUSH1 0x4 ADD PUSH2 0x2D9 SWAP1 PUSH2 0x905 JUMP JUMPDEST PUSH1 0x40 MLOAD DUP1 SWAP2 SUB SWAP1 REVERT JUMPDEST PUSH0 JUMPDEST PUSH0 DUP1 SLOAD SWAP1 POP DUP2 LT ISZERO PUSH2 0x38F JUMPI PUSH0 DUP1 DUP3 DUP2 SLOAD DUP2 LT PUSH2 0x304 JUMPI PUSH2 0x303 PUSH2 0x7B8 JUMP JUMPDEST JUMPDEST SWAP1 PUSH0 MSTORE PUSH1 0x20 PUSH0 KECCAK256 SWAP1 PUSH1 0x3 MUL ADD PUSH1 0x1 ADD PUSH0 SWAP1 SLOAD SWAP1 PUSH2 0x100 EXP SWAP1 DIV PUSH20 0xFFFFFFFFFFFFFFFFFFFFFFFFFFFFFFFFFFFFFFFF AND SWAP1 POP DUP1 PUSH20 0xFFFFFFFFFFFFFFFFFFFFFFFFFFFFFFFFFFFFFFFF AND PUSH2 0x8FC PUSH8 0xDE0B6B3A7640000 SWAP1 DUP2 ISZERO MUL SWAP1 PUSH1 0x40 MLOAD PUSH0 PUSH1 0x40 MLOAD DUP1 DUP4 SUB DUP2 DUP6 DUP9 DUP9 CALL SWAP4 POP POP POP POP ISZERO DUP1 ISZERO PUSH2 0x380 JUMPI RETURNDATASIZE PUSH0 DUP1 RETURNDATACOPY RETURNDATASIZE PUSH0 REVERT JUMPDEST POP POP DUP1 DUP1 PUSH1 0x1 ADD SWAP2 POP POP PUSH2 0x2E4 JUMP JUMPDEST POP JUMP JUMPDEST PUSH1 0x60 PUSH0 PUSH1 0x40 MLOAD DUP1 PUSH1 0x60 ADD PUSH1 0x40 MSTORE DUP1 PUSH1 0x1 PUSH0 DUP2 SLOAD DUP1 SWAP3 SWAP2 SWAP1 PUSH2 0x3B2 SWAP1 PUSH2 0x92C JUMP JUMPDEST SWAP2 SWAP1 POP SSTORE DUP2 MSTORE PUSH1 0x20 ADD CALLER PUSH20 0xFFFFFFFFFFFFFFFFFFFFFFFFFFFFFFFFFFFFFFFF AND DUP2 MSTORE PUSH1 0x20 ADD CALLER PUSH20 0xFFFFFFFFFFFFFFFFFFFFFFFFFFFFFFFFFFFFFFFF AND BALANCE DUP2 MSTORE POP SWAP1 DUP1 PUSH1 0x1 DUP2 SLOAD ADD DUP1 DUP3 SSTORE DUP1 SWAP2 POP POP PUSH1 0x1 SWAP1 SUB SWAP1 PUSH0 MSTORE PUSH1 0x20 PUSH0 KECCAK256 SWAP1 PUSH1 0x3 MUL ADD PUSH0 SWAP1 SWAP2 SWAP1 SWAP2 SWAP1 SWAP2 POP PUSH0 DUP3 ADD MLOAD DUP2 PUSH0 ADD SSTORE PUSH1 0x20 DUP3 ADD MLOAD DUP2 PUSH1 0x1 ADD PUSH0 PUSH2 0x100 EXP DUP2 SLOAD DUP2 PUSH20 0xFFFFFFFFFFFFFFFFFFFFFFFFFFFFFFFFFFFFFFFF MUL NOT AND SWAP1 DUP4 PUSH20 0xFFFFFFFFFFFFFFFFFFFFFFFFFFFFFFFFFFFFFFFF AND MUL OR SWAP1 SSTORE POP PUSH1 0x40 DUP3 ADD MLOAD DUP2 PUSH1 0x2 ADD SSTORE POP POP PUSH1 0x40 MLOAD DUP1 PUSH1 0x20 ADD PUSH1 0x40 MSTORE DUP1 PUSH0 DUP2 MSTORE POP SWAP1 POP SWAP1 JUMP JUMPDEST PUSH0 DUP1 JUMPDEST PUSH0 DUP1 SLOAD SWAP1 POP DUP2 LT ISZERO PUSH2 0x51F JUMPI CALLER PUSH20 0xFFFFFFFFFFFFFFFFFFFFFFFFFFFFFFFFFFFFFFFF AND PUSH0 DUP3 DUP2 SLOAD DUP2 LT PUSH2 0x4BF JUMPI PUSH2 0x4BE PUSH2 0x7B8 JUMP JUMPDEST JUMPDEST SWAP1 PUSH0 MSTORE PUSH1 0x20 PUSH0 KECCAK256 SWAP1 PUSH1 0x3 MUL ADD PUSH1 0x1 ADD PUSH0 SWAP1 SLOAD SWAP1 PUSH2 0x100 EXP SWAP1 DIV PUSH20 0xFFFFFFFFFFFFFFFFFFFFFFFFFFFFFFFFFFFFFFFF AND PUSH20 0xFFFFFFFFFFFFFFFFFFFFFFFFFFFFFFFFFFFFFFFF AND SUB PUSH2 0x512 JUMPI PUSH1 0x1 SWAP2 POP PUSH2 0x51F JUMP JUMPDEST DUP1 DUP1 PUSH1 0x1 ADD SWAP2 POP POP PUSH2 0x489 JUMP JUMPDEST POP DUP1 PUSH2 0x560 JUMPI PUSH1 0x40 MLOAD PUSH32 0x8C379A000000000000000000000000000000000000000000000000000000000 DUP2 MSTORE PUSH1 0x4 ADD PUSH2 0x557 SWAP1 PUSH2 0x82F JUMP JUMPDEST PUSH1 0x40 MLOAD DUP1 SWAP2 SUB SWAP1 REVERT JUMPDEST ADDRESS PUSH20 0xFFFFFFFFFFFFFFFFFFFFFFFFFFFFFFFFFFFFFFFF AND PUSH2 0x8FC CALLVALUE SWAP1 DUP2 ISZERO MUL SWAP1 PUSH1 0x40 MLOAD PUSH0 PUSH1 0x40 MLOAD DUP1 DUP4 SUB DUP2 DUP6 DUP9 DUP9 CALL SWAP4 POP POP POP POP ISZERO DUP1 ISZERO PUSH2 0x5A3 JUMPI RETURNDATASIZE PUSH0 DUP1 RETURNDATACOPY RETURNDATASIZE PUSH0 REVERT JUMPDEST POP POP JUMP JUMPDEST PUSH1 0x60 DUP2 PUSH1 0x2 PUSH0 PUSH2 0x100 EXP DUP2 SLOAD DUP2 PUSH20 0xFFFFFFFFFFFFFFFFFFFFFFFFFFFFFFFFFFFFFFFF MUL NOT AND SWAP1 DUP4 PUSH20 0xFFFFFFFFFFFFFFFFFFFFFFFFFFFFFFFFFFFFFFFF AND MUL OR SWAP1 SSTORE POP PUSH1 0x40 MLOAD DUP1 PUSH1 0x20 ADD PUSH1 0x40 MSTORE DUP1 PUSH0 DUP2 MSTORE POP SWAP1 POP SWAP2 SWAP1 POP JUMP JUMPDEST PUSH0 DUP1 REVERT JUMPDEST PUSH0 DUP2 SWAP1 POP SWAP2 SWAP1 POP JUMP JUMPDEST PUSH2 0x615 DUP2 PUSH2 0x603 JUMP JUMPDEST DUP2 EQ PUSH2 0x61F JUMPI PUSH0 DUP1 REVERT JUMPDEST POP JUMP JUMPDEST PUSH0 DUP2 CALLDATALOAD SWAP1 POP PUSH2 0x630 DUP2 PUSH2 0x60C JUMP JUMPDEST SWAP3 SWAP2 POP POP JUMP JUMPDEST PUSH0 PUSH1 0x20 DUP3 DUP5 SUB SLT ISZERO PUSH2 0x64B JUMPI PUSH2 0x64A PUSH2 0x5FF JUMP JUMPDEST JUMPDEST PUSH0 PUSH2 0x658 DUP5 DUP3 DUP6 ADD PUSH2 0x622 JUMP JUMPDEST SWAP2 POP POP SWAP3 SWAP2 POP POP JUMP JUMPDEST PUSH2 0x66A DUP2 PUSH2 0x603 JUMP JUMPDEST DUP3 MSTORE POP POP JUMP JUMPDEST PUSH0 PUSH1 0x20 DUP3 ADD SWAP1 POP PUSH2 0x683 PUSH0 DUP4 ADD DUP5 PUSH2 0x661 JUMP JUMPDEST SWAP3 SWAP2 POP POP JUMP JUMPDEST PUSH0 DUP2 MLOAD SWAP1 POP SWAP2 SWAP1 POP JUMP JUMPDEST PUSH0 DUP3 DUP3 MSTORE PUSH1 0x20 DUP3 ADD SWAP1 POP SWAP3 SWAP2 POP POP JUMP JUMPDEST PUSH0 JUMPDEST DUP4 DUP2 LT ISZERO PUSH2 0x6C0 JUMPI DUP1 DUP3 ADD MLOAD DUP2 DUP5 ADD MSTORE PUSH1 0x20 DUP2 ADD SWAP1 POP PUSH2 0x6A5 JUMP JUMPDEST PUSH0 DUP5 DUP5 ADD MSTORE POP POP POP POP JUMP JUMPDEST PUSH0 PUSH1 0x1F NOT PUSH1 0x1F DUP4 ADD AND SWAP1 POP SWAP2 SWAP1 POP JUMP JUMPDEST PUSH0 PUSH2 0x6E5 DUP3 PUSH2 0x689 JUMP JUMPDEST PUSH2 0x6EF DUP2 DUP6 PUSH2 0x693 JUMP JUMPDEST SWAP4 POP PUSH2 0x6FF DUP2 DUP6 PUSH1 0x20 DUP7 ADD PUSH2 0x6A3 JUMP JUMPDEST PUSH2 0x708 DUP2 PUSH2 0x6CB JUMP JUMPDEST DUP5 ADD SWAP2 POP POP SWAP3 SWAP2 POP POP JUMP JUMPDEST PUSH0 PUSH1 0x20 DUP3 ADD SWAP1 POP DUP2 DUP2 SUB PUSH0 DUP4 ADD MSTORE PUSH2 0x72B DUP2 DUP5 PUSH2 0x6DB JUMP JUMPDEST SWAP1 POP SWAP3 SWAP2 POP POP JUMP JUMPDEST PUSH0 PUSH20 0xFFFFFFFFFFFFFFFFFFFFFFFFFFFFFFFFFFFFFFFF DUP3 AND SWAP1 POP SWAP2 SWAP1 POP JUMP JUMPDEST PUSH0 PUSH2 0x75C DUP3 PUSH2 0x733 JUMP JUMPDEST SWAP1 POP SWAP2 SWAP1 POP JUMP JUMPDEST PUSH2 0x76C DUP2 PUSH2 0x752 JUMP JUMPDEST DUP2 EQ PUSH2 0x776 JUMPI PUSH0 DUP1 REVERT JUMPDEST POP JUMP JUMPDEST PUSH0 DUP2 CALLDATALOAD SWAP1 POP PUSH2 0x787 DUP2 PUSH2 0x763 JUMP JUMPDEST SWAP3 SWAP2 POP POP JUMP JUMPDEST PUSH0 PUSH1 0x20 DUP3 DUP5 SUB SLT ISZERO PUSH2 0x7A2 JUMPI PUSH2 0x7A1 PUSH2 0x5FF JUMP JUMPDEST JUMPDEST PUSH0 PUSH2 0x7AF DUP5 DUP3 DUP6 ADD PUSH2 0x779 JUMP JUMPDEST SWAP2 POP POP SWAP3 SWAP2 POP POP JUMP JUMPDEST PUSH32 0x4E487B7100000000000000000000000000000000000000000000000000000000 PUSH0 MSTORE PUSH1 0x32 PUSH1 0x4 MSTORE PUSH1 0x24 PUSH0 REVERT JUMPDEST PUSH32 0x4F6E6C7920636C69656E74732063616E2063616C6C2074686973210000000000 PUSH0 DUP3 ADD MSTORE POP JUMP JUMPDEST PUSH0 PUSH2 0x819 PUSH1 0x1B DUP4 PUSH2 0x693 JUMP JUMPDEST SWAP2 POP PUSH2 0x824 DUP3 PUSH2 0x7E5 JUMP JUMPDEST PUSH1 0x20 DUP3 ADD SWAP1 POP SWAP2 SWAP1 POP JUMP JUMPDEST PUSH0 PUSH1 0x20 DUP3 ADD SWAP1 POP DUP2 DUP2 SUB PUSH0 DUP4 ADD MSTORE PUSH2 0x846 DUP2 PUSH2 0x80D JUMP JUMPDEST SWAP1 POP SWAP2 SWAP1 POP JUMP JUMPDEST PUSH32 0x4E487B7100000000000000000000000000000000000000000000000000000000 PUSH0 MSTORE PUSH1 0x11 PUSH1 0x4 MSTORE PUSH1 0x24 PUSH0 REVERT JUMPDEST PUSH0 PUSH2 0x884 DUP3 PUSH2 0x603 JUMP JUMPDEST SWAP2 POP PUSH2 0x88F DUP4 PUSH2 0x603 JUMP JUMPDEST SWAP3 POP DUP3 DUP3 MUL PUSH2 0x89D DUP2 PUSH2 0x603 JUMP JUMPDEST SWAP2 POP DUP3 DUP3 DIV DUP5 EQ DUP4 ISZERO OR PUSH2 0x8B4 JUMPI PUSH2 0x8B3 PUSH2 0x84D JUMP JUMPDEST JUMPDEST POP SWAP3 SWAP2 POP POP JUMP JUMPDEST PUSH32 0x4F6E6C79206D616E616765722063616E2063616C6C2074686973210000000000 PUSH0 DUP3 ADD MSTORE POP JUMP JUMPDEST PUSH0 PUSH2 0x8EF PUSH1 0x1B DUP4 PUSH2 0x693 JUMP JUMPDEST SWAP2 POP PUSH2 0x8FA DUP3 PUSH2 0x8BB JUMP JUMPDEST PUSH1 0x20 DUP3 ADD SWAP1 POP SWAP2 SWAP1 POP JUMP JUMPDEST PUSH0 PUSH1 0x20 DUP3 ADD SWAP1 POP DUP2 DUP2 SUB PUSH0 DUP4 ADD MSTORE PUSH2 0x91C DUP2 PUSH2 0x8E3 JUMP JUMPDEST SWAP1 POP SWAP2 SWAP1 POP JUMP JUMPDEST PUSH0 DUP2 SWAP1 POP SWAP2 SWAP1 POP JUMP JUMPDEST PUSH0 PUSH2 0x936 DUP3 PUSH2 0x923 JUMP JUMPDEST SWAP2 POP PUSH32 0x7FFFFFFFFFFFFFFFFFFFFFFFFFFFFFFFFFFFFFFFFFFFFFFFFFFFFFFFFFFFFFFF DUP3 SUB PUSH2 0x968 JUMPI PUSH2 0x967 PUSH2 0x84D JUMP JUMPDEST JUMPDEST PUSH1 0x1 DUP3 ADD SWAP1 POP SWAP2 SWAP1 POP JUMP INVALID LOG2 PUSH5 0x6970667358 0x22 SLT KECCAK256 0xCC 0xC 0xBD SWAP5 KECCAK256 PUSH9 0x951B9EE93EA27A97DF 0xC3 SMOD CODECOPY 0xA8 SAR 0xC5 DUP16 0xAF 0xD3 CALL SWAP4 DELEGATECALL SHL 0x21 0xE3 SWAP11 ORIGIN PUSH5 0x736F6C6343 STOP ADDMOD AND STOP CALLER "
				},
				"gasEstimates": {
					"creation": {
						"codeDepositCost": "494600",
						"executionCost": "5541",
						"totalCost": "500141"
					},
					"external": {
						"deposit()": "infinite",
						"getContractBalance()": "334",
						"joinAsClient()": "120536",
						"sendInterest()": "infinite",
						"setManager(address)": "25294",
						"withdraw(uint256)": "infinite"
					}
				},
				"methodIdentifiers": {
					"deposit()": "d0e30db0",
					"getContractBalance()": "6f9fb98a",
					"joinAsClient()": "a4092174",
					"sendInterest()": "9e0a5d68",
					"setManager(address)": "d0ebdbe7",
					"withdraw(uint256)": "2e1a7d4d"
				}
			},
			"storageLayout": {
				"storage": [
					{
						"astId": 12,
						"contract": "Practical2.sol:SimpleBank",
						"label": "clients",
						"offset": 0,
						"slot": "0",
						"type": "t_array(t_struct(client_account)8_storage)dyn_storage"
					},
					{
						"astId": 14,
						"contract": "Practical2.sol:SimpleBank",
						"label": "clientCounter",
						"offset": 0,
						"slot": "1",
						"type": "t_int256"
					},
					{
						"astId": 16,
						"contract": "Practical2.sol:SimpleBank",
						"label": "manager",
						"offset": 0,
						"slot": "2",
						"type": "t_address_payable"
					}
				],
				"types": {
					"t_address": {
						"encoding": "inplace",
						"label": "address",
						"numberOfBytes": "20"
					},
					"t_address_payable": {
						"encoding": "inplace",
						"label": "address payable",
						"numberOfBytes": "20"
					},
					"t_array(t_struct(client_account)8_storage)dyn_storage": {
						"base": "t_struct(client_account)8_storage",
						"encoding": "dynamic_array",
						"label": "struct SimpleBank.client_account[]",
						"numberOfBytes": "32"
					},
					"t_int256": {
						"encoding": "inplace",
						"label": "int256",
						"numberOfBytes": "32"
					},
					"t_struct(client_account)8_storage": {
						"encoding": "inplace",
						"label": "struct SimpleBank.client_account",
						"members": [
							{
								"astId": 3,
								"contract": "Practical2.sol:SimpleBank",
								"label": "client_id",
								"offset": 0,
								"slot": "0",
								"type": "t_int256"
							},
							{
								"astId": 5,
								"contract": "Practical2.sol:SimpleBank",
								"label": "client_address",
								"offset": 0,
								"slot": "1",
								"type": "t_address"
							},
							{
								"astId": 7,
								"contract": "Practical2.sol:SimpleBank",
								"label": "client_balance_in_ether",
								"offset": 0,
								"slot": "2",
								"type": "t_uint256"
							}
						],
						"numberOfBytes": "96"
					},
					"t_uint256": {
						"encoding": "inplace",
						"label": "uint256",
						"numberOfBytes": "32"
					}
				}
			},
			"userdoc": {
				"kind": "user",
				"methods": {},
				"version": 1
			}
		}
	}
}